{
  "contractName": "ViswapMine",
  "abi": [
    {
      "inputs": [
        {
          "internalType": "contract ViswapToken",
          "name": "_limitswapToken",
          "type": "address"
        },
        {
          "internalType": "uint256",
          "name": "_minedPerBlock",
          "type": "uint256"
        },
        {
          "internalType": "uint256",
          "name": "_startBlock",
          "type": "uint256"
        },
        {
          "internalType": "uint256",
          "name": "_maxSupply",
          "type": "uint256"
        }
      ],
      "stateMutability": "nonpayable",
      "type": "constructor"
    },
    {
      "anonymous": false,
      "inputs": [
        {
          "indexed": true,
          "internalType": "address",
          "name": "user",
          "type": "address"
        },
        {
          "indexed": true,
          "internalType": "uint256",
          "name": "pid",
          "type": "uint256"
        },
        {
          "indexed": false,
          "internalType": "uint256",
          "name": "amount",
          "type": "uint256"
        }
      ],
      "name": "Claim",
      "type": "event"
    },
    {
      "anonymous": false,
      "inputs": [
        {
          "indexed": true,
          "internalType": "address",
          "name": "user",
          "type": "address"
        },
        {
          "indexed": true,
          "internalType": "uint256",
          "name": "pid",
          "type": "uint256"
        },
        {
          "indexed": false,
          "internalType": "uint256",
          "name": "amount",
          "type": "uint256"
        }
      ],
      "name": "Deposit",
      "type": "event"
    },
    {
      "anonymous": false,
      "inputs": [
        {
          "indexed": true,
          "internalType": "address",
          "name": "user",
          "type": "address"
        },
        {
          "indexed": true,
          "internalType": "uint256",
          "name": "pid",
          "type": "uint256"
        },
        {
          "indexed": false,
          "internalType": "uint256",
          "name": "amount",
          "type": "uint256"
        }
      ],
      "name": "EmergencyWithdraw",
      "type": "event"
    },
    {
      "anonymous": false,
      "inputs": [
        {
          "indexed": true,
          "internalType": "address",
          "name": "previousOwner",
          "type": "address"
        },
        {
          "indexed": true,
          "internalType": "address",
          "name": "newOwner",
          "type": "address"
        }
      ],
      "name": "OwnershipTransferred",
      "type": "event"
    },
    {
      "anonymous": false,
      "inputs": [
        {
          "indexed": true,
          "internalType": "address",
          "name": "user",
          "type": "address"
        },
        {
          "indexed": true,
          "internalType": "uint256",
          "name": "pid",
          "type": "uint256"
        },
        {
          "indexed": false,
          "internalType": "uint256",
          "name": "amount",
          "type": "uint256"
        }
      ],
      "name": "Withdraw",
      "type": "event"
    },
    {
      "inputs": [],
      "name": "limitswapToken",
      "outputs": [
        {
          "internalType": "contract ViswapToken",
          "name": "",
          "type": "address"
        }
      ],
      "stateMutability": "view",
      "type": "function"
    },
    {
      "inputs": [],
      "name": "maxSupply",
      "outputs": [
        {
          "internalType": "uint256",
          "name": "",
          "type": "uint256"
        }
      ],
      "stateMutability": "view",
      "type": "function"
    },
    {
      "inputs": [],
      "name": "minedPerBlock",
      "outputs": [
        {
          "internalType": "uint256",
          "name": "",
          "type": "uint256"
        }
      ],
      "stateMutability": "view",
      "type": "function"
    },
    {
      "inputs": [],
      "name": "owner",
      "outputs": [
        {
          "internalType": "address",
          "name": "",
          "type": "address"
        }
      ],
      "stateMutability": "view",
      "type": "function"
    },
    {
      "inputs": [
        {
          "internalType": "uint256",
          "name": "",
          "type": "uint256"
        }
      ],
      "name": "poolInfo",
      "outputs": [
        {
          "internalType": "contract IERC20",
          "name": "depositToken",
          "type": "address"
        },
        {
          "internalType": "uint256",
          "name": "allocPoint",
          "type": "uint256"
        },
        {
          "internalType": "uint256",
          "name": "lastRewardBlock",
          "type": "uint256"
        },
        {
          "internalType": "uint256",
          "name": "accMinedPerShare",
          "type": "uint256"
        }
      ],
      "stateMutability": "view",
      "type": "function"
    },
    {
      "inputs": [],
      "name": "renounceOwnership",
      "outputs": [],
      "stateMutability": "nonpayable",
      "type": "function"
    },
    {
      "inputs": [],
      "name": "startBlock",
      "outputs": [
        {
          "internalType": "uint256",
          "name": "",
          "type": "uint256"
        }
      ],
      "stateMutability": "view",
      "type": "function"
    },
    {
      "inputs": [],
      "name": "totalAllocPoint",
      "outputs": [
        {
          "internalType": "uint256",
          "name": "",
          "type": "uint256"
        }
      ],
      "stateMutability": "view",
      "type": "function"
    },
    {
      "inputs": [
        {
          "internalType": "address",
          "name": "newOwner",
          "type": "address"
        }
      ],
      "name": "transferOwnership",
      "outputs": [],
      "stateMutability": "nonpayable",
      "type": "function"
    },
    {
      "inputs": [
        {
          "internalType": "uint256",
          "name": "",
          "type": "uint256"
        },
        {
          "internalType": "address",
          "name": "",
          "type": "address"
        }
      ],
      "name": "userInfo",
      "outputs": [
        {
          "internalType": "uint256",
          "name": "amount",
          "type": "uint256"
        },
        {
          "internalType": "uint256",
          "name": "rewardDebt",
          "type": "uint256"
        }
      ],
      "stateMutability": "view",
      "type": "function"
    },
    {
      "inputs": [],
      "name": "poolLength",
      "outputs": [
        {
          "internalType": "uint256",
          "name": "",
          "type": "uint256"
        }
      ],
      "stateMutability": "view",
      "type": "function"
    },
    {
      "inputs": [
        {
          "internalType": "uint256",
          "name": "_pid",
          "type": "uint256"
        }
      ],
      "name": "minedPerBlockByPool",
      "outputs": [
        {
          "internalType": "uint256",
          "name": "outputPerBlock",
          "type": "uint256"
        }
      ],
      "stateMutability": "view",
      "type": "function"
    },
    {
      "inputs": [
        {
          "internalType": "uint256",
          "name": "_allocPoint",
          "type": "uint256"
        },
        {
          "internalType": "contract IERC20",
          "name": "_depositToken",
          "type": "address"
        }
      ],
      "name": "add",
      "outputs": [],
      "stateMutability": "nonpayable",
      "type": "function"
    },
    {
      "inputs": [
        {
          "internalType": "uint256",
          "name": "_pid",
          "type": "uint256"
        },
        {
          "internalType": "uint256",
          "name": "_allocPoint",
          "type": "uint256"
        }
      ],
      "name": "set",
      "outputs": [],
      "stateMutability": "nonpayable",
      "type": "function"
    },
    {
      "inputs": [
        {
          "internalType": "uint256",
          "name": "_minedPerBlock",
          "type": "uint256"
        }
      ],
      "name": "setMinedPerBlock",
      "outputs": [],
      "stateMutability": "nonpayable",
      "type": "function"
    },
    {
      "inputs": [
        {
          "internalType": "uint256",
          "name": "_pid",
          "type": "uint256"
        },
        {
          "internalType": "address",
          "name": "_user",
          "type": "address"
        }
      ],
      "name": "pendingAmount",
      "outputs": [
        {
          "internalType": "uint256",
          "name": "_pending",
          "type": "uint256"
        }
      ],
      "stateMutability": "view",
      "type": "function"
    },
    {
      "inputs": [
        {
          "internalType": "address",
          "name": "_user",
          "type": "address"
        }
      ],
      "name": "pendingAllAmount",
      "outputs": [
        {
          "internalType": "uint256",
          "name": "_pending",
          "type": "uint256"
        }
      ],
      "stateMutability": "view",
      "type": "function"
    },
    {
      "inputs": [],
      "name": "massUpdatePools",
      "outputs": [],
      "stateMutability": "nonpayable",
      "type": "function"
    },
    {
      "inputs": [
        {
          "internalType": "uint256",
          "name": "_pid",
          "type": "uint256"
        }
      ],
      "name": "updatePool",
      "outputs": [],
      "stateMutability": "nonpayable",
      "type": "function"
    },
    {
      "inputs": [
        {
          "internalType": "uint256",
          "name": "_pid",
          "type": "uint256"
        },
        {
          "internalType": "address",
          "name": "_user",
          "type": "address"
        }
      ],
      "name": "depositedAmount",
      "outputs": [
        {
          "internalType": "uint256",
          "name": "amount",
          "type": "uint256"
        }
      ],
      "stateMutability": "view",
      "type": "function"
    },
    {
      "inputs": [
        {
          "internalType": "uint256",
          "name": "_pid",
          "type": "uint256"
        }
      ],
      "name": "claim",
      "outputs": [],
      "stateMutability": "nonpayable",
      "type": "function"
    },
    {
      "inputs": [
        {
          "internalType": "uint256",
          "name": "_pid",
          "type": "uint256"
        },
        {
          "internalType": "uint256",
          "name": "_amount",
          "type": "uint256"
        }
      ],
      "name": "deposit",
      "outputs": [],
      "stateMutability": "nonpayable",
      "type": "function"
    },
    {
      "inputs": [
        {
          "internalType": "uint256",
          "name": "_pid",
          "type": "uint256"
        },
        {
          "internalType": "uint256",
          "name": "_amount",
          "type": "uint256"
        }
      ],
      "name": "withdraw",
      "outputs": [],
      "stateMutability": "nonpayable",
      "type": "function"
    },
    {
      "inputs": [
        {
          "internalType": "uint256",
          "name": "_pid",
          "type": "uint256"
        }
      ],
      "name": "emergencyWithdraw",
      "outputs": [],
      "stateMutability": "nonpayable",
      "type": "function"
    }
  ],
  "bytecode": "0x60c0604052600060045534801561001557600080fd5b50604051611a53380380611a538339818101604052608081101561003857600080fd5b508051602082015160408301516060909301519192909160006100596100c7565b600080546001600160a01b0319166001600160a01b0383169081178255604051929350917f8be0079c531659141344cd1fd0a4f28419497f9722a3daafe3b4186f6b6457e0908290a35060609390931b6001600160601b03191660805260019190915560055560a0526100cb565b3390565b60805160601c60a05161192661012d6000398061094352806109f15280610d815280610fbc5280610fe2528061109b52508061096c5280610a225280610aa9528061100752806110bc52806112ca52806117a752806117cd52506119266000f3fe608060405234801561001057600080fd5b50600436106101585760003560e01c80638da5cb5b116100c3578063e2bbb1581161007c578063e2bbb1581461036b578063f0d6436d1461038e578063f2fde38b146103ba578063f4c8770e146103e0578063f63f90991461040c578063fef3fcbc1461042957610158565b80638da5cb5b146102af57806393f1a40b146102d35780639b1c615014610318578063d42f3dfa1461033e578063d437b3201461035b578063d5abeb011461036357610158565b8063441a3e7011610115578063441a3e701461023a57806348cd4cb11461025d57806351eb05a6146102655780635312ea8e14610282578063630b5ba11461029f578063715018a6146102a757610158565b8063081e3eda1461015d5780631526fe271461017757806317caf6f1146101c45780631ab06ee5146101cc5780632b8bbbe8146101f1578063379607f51461021d575b600080fd5b610165610431565b60408051918252519081900360200190f35b6101946004803603602081101561018d57600080fd5b5035610437565b604080516001600160a01b0390951685526020850193909352838301919091526060830152519081900360800190f35b61016561047b565b6101ef600480360360408110156101e257600080fd5b5080359060200135610481565b005b6101ef6004803603604081101561020757600080fd5b50803590602001356001600160a01b0316610555565b6101ef6004803603602081101561023357600080fd5b50356106d5565b6101ef6004803603604081101561025057600080fd5b508035906020013561073f565b61016561084c565b6101ef6004803603602081101561027b57600080fd5b5035610852565b6101ef6004803603602081101561029857600080fd5b5035610b45565b6101ef610bde565b6101ef610c01565b6102b7610cad565b604080516001600160a01b039092168252519081900360200190f35b6102ff600480360360408110156102e957600080fd5b50803590602001356001600160a01b0316610cbc565b6040805192835260208301919091528051918290030190f35b6101656004803603602081101561032e57600080fd5b50356001600160a01b0316610ce0565b6101ef6004803603602081101561035457600080fd5b5035610d0a565b610165610d79565b610165610d7f565b6101ef6004803603604081101561038157600080fd5b5080359060200135610da3565b610165600480360360408110156103a457600080fd5b50803590602001356001600160a01b0316610e69565b6101ef600480360360208110156103d057600080fd5b50356001600160a01b0316611152565b610165600480360360408110156103f657600080fd5b50803590602001356001600160a01b0316611254565b6101656004803603602081101561042257600080fd5b503561127b565b6102b76112c8565b60025490565b6002818154811061044757600080fd5b600091825260209091206004909102018054600182015460028301546003909301546001600160a01b039092169350919084565b60045481565b6104896112ec565b6001600160a01b031661049a610cad565b6001600160a01b0316146104e3576040805162461bcd60e51b815260206004820181905260248201526000805160206118ad833981519152604482015290519081900360640190fd5b6104eb610bde565b61052881610522600285815481106104ff57fe5b9060005260206000209060040201600101546004546112f090919063ffffffff16565b90611346565b600481905550806002838154811061053c57fe5b9060005260206000209060040201600101819055505050565b61055d6112ec565b6001600160a01b031661056e610cad565b6001600160a01b0316146105b7576040805162461bcd60e51b815260206004820181905260248201526000805160206118ad833981519152604482015290519081900360640190fd5b6105bf610bde565b600060055443116105d2576005546105d4565b435b6004549091506105e49084611346565b6004908155604080516080810182526001600160a01b03948516815260208101958652908101928352600060608201818152600280546001810182559252915192027f405787fa12a823e0f2b7631cc41b3ba8828b3321ca811111fa75cd3aa3bb5ace81018054939095166001600160a01b03199093169290921790935592517f405787fa12a823e0f2b7631cc41b3ba8828b3321ca811111fa75cd3aa3bb5acf840155517f405787fa12a823e0f2b7631cc41b3ba8828b3321ca811111fa75cd3aa3bb5ad0830155517f405787fa12a823e0f2b7631cc41b3ba8828b3321ca811111fa75cd3aa3bb5ad190910155565b6000818152600360209081526040808320338085529252909120906106fb908390611395565b61073664e8d4a510006107306002858154811061071457fe5b6000918252602090912060036004909202010154845490611467565b906114ca565b60019091015550565b60006002838154811061074e57fe5b6000918252602080832086845260038252604080852033865290925292208054600490920290920192508311156107c1576040805162461bcd60e51b81526020600482015260126024820152711dda5d1a191c985dce881b9bdd0819dbdbd960721b604482015290519081900360640190fd5b6107cb8433611395565b80546107d790846112f0565b80825560038301546107f49164e8d4a51000916107309190611467565b6001820155815461080f906001600160a01b031633856114dd565b604080518481529051859133917ff279e6a1f5e320cca91135676d9cb6e44ca8a08c0b88342bcdb1144f6511b5689181900360200190a350505050565b60055481565b60006002828154811061086157fe5b90600052602060002090600402019050806002015443116108825750610b42565b8054604080516370a0823160e01b815230600482015290516000926001600160a01b0316916370a08231916024808301926020929190829003018186803b1580156108cc57600080fd5b505afa1580156108e0573d6000803e3d6000fd5b505050506040513d60208110156108f657600080fd5b505190508061090c575043600290910155610b42565b600061093f60045461073085600101546109396001546109398960020154436112f090919063ffffffff16565b90611467565b90507f000000000000000000000000000000000000000000000000000000000000000015610a7c57610a167f00000000000000000000000000000000000000000000000000000000000000006001600160a01b03166318160ddd6040518163ffffffff1660e01b815260040160206040518083038186803b1580156109c357600080fd5b505afa1580156109d7573d6000803e3d6000fd5b505050506040513d60208110156109ed57600080fd5b50517f0000000000000000000000000000000000000000000000000000000000000000906112f0565b811115610a7c57610a797f00000000000000000000000000000000000000000000000000000000000000006001600160a01b03166318160ddd6040518163ffffffff1660e01b815260040160206040518083038186803b1580156109c357600080fd5b90505b8015610b3857604080516340c10f1960e01b81523060048201526024810183905290516001600160a01b037f000000000000000000000000000000000000000000000000000000000000000016916340c10f1991604480830192600092919082900301818387803b158015610af057600080fd5b505af1158015610b04573d6000803e3d6000fd5b50505050610b32610b278361073064e8d4a510008561146790919063ffffffff16565b600385015490611346565b60038401555b5050436002909101555b50565b600060028281548110610b5457fe5b600091825260208083208584526003825260408085203380875293529093206004909202909201805482549194509192610b97926001600160a01b0316916114dd565b80546040805191825251849133917fbb757047c2b5f3974fe26b7c10f732e7bce710b0952a71082702781e62ae05959181900360200190a360008082556001909101555050565b60025460005b81811015610bfd57610bf581610852565b600101610be4565b5050565b610c096112ec565b6001600160a01b0316610c1a610cad565b6001600160a01b031614610c63576040805162461bcd60e51b815260206004820181905260248201526000805160206118ad833981519152604482015290519081900360640190fd5b600080546040516001600160a01b03909116907f8be0079c531659141344cd1fd0a4f28419497f9722a3daafe3b4186f6b6457e0908390a3600080546001600160a01b0319169055565b6000546001600160a01b031690565b60036020908152600092835260408084209091529082529020805460019091015482565b6000805b600254811015610d0457610cf88184610e69565b90910190600101610ce4565b50919050565b610d126112ec565b6001600160a01b0316610d23610cad565b6001600160a01b031614610d6c576040805162461bcd60e51b815260206004820181905260248201526000805160206118ad833981519152604482015290519081900360640190fd5b610d74610bde565b600155565b60015481565b7f000000000000000000000000000000000000000000000000000000000000000081565b600060028381548110610db257fe5b600091825260208083208684526003825260408085203380875293529093206004909202909201925090610de7908590611395565b8154610dfe906001600160a01b0316333086611646565b8054610e0a9084611346565b8082556003830154610e279164e8d4a51000916107309190611467565b6001820155604080518481529051859133917f90890809c654f11d6e72a28fa60149770a0d11ec6c92319d6ceb2bb0a4ea1a159181900360200190a350505050565b60008060028481548110610e7957fe5b60009182526020808320878452600380835260408086206001600160a01b03808b168852908552818720600496870290940192830154835483516370a0823160e01b8152309881019890985292519398509396939593949116926370a082319260248083019392829003018186803b158015610ef457600080fd5b505afa158015610f08573d6000803e3d6000fd5b505050506040513d6020811015610f1e57600080fd5b5051600285015490915043118015610f3557508015155b15610f8a576000610f6760045461073087600101546109396001546109398b60020154436112f090919063ffffffff16565b9050610f86610f7f836107308464e8d4a51000611467565b8490611346565b9250505b610fb88360010154610fb264e8d4a5100061073086886000015461146790919063ffffffff16565b906112f0565b94507f000000000000000000000000000000000000000000000000000000000000000015611148577f0000000000000000000000000000000000000000000000000000000000000000611090867f00000000000000000000000000000000000000000000000000000000000000006001600160a01b03166318160ddd6040518163ffffffff1660e01b815260040160206040518083038186803b15801561105e57600080fd5b505afa158015611072573d6000803e3d6000fd5b505050506040513d602081101561108857600080fd5b505190611346565b1115611148576111457f00000000000000000000000000000000000000000000000000000000000000007f00000000000000000000000000000000000000000000000000000000000000006001600160a01b03166318160ddd6040518163ffffffff1660e01b815260040160206040518083038186803b15801561111357600080fd5b505afa158015611127573d6000803e3d6000fd5b505050506040513d602081101561113d57600080fd5b5051906112f0565b94505b5050505092915050565b61115a6112ec565b6001600160a01b031661116b610cad565b6001600160a01b0316146111b4576040805162461bcd60e51b815260206004820181905260248201526000805160206118ad833981519152604482015290519081900360640190fd5b6001600160a01b0381166111f95760405162461bcd60e51b81526004018080602001828103825260268152602001806118876026913960400191505060405180910390fd5b600080546040516001600160a01b03808516939216917f8be0079c531659141344cd1fd0a4f28419497f9722a3daafe3b4186f6b6457e091a3600080546001600160a01b0319166001600160a01b0392909216919091179055565b60009182526003602090815260408084206001600160a01b03909316845291905290205490565b60006004546000146112c3576112c06004546107306002858154811061129d57fe5b90600052602060002090600402016001015460015461146790919063ffffffff16565b90505b919050565b7f000000000000000000000000000000000000000000000000000000000000000081565b3390565b80820382811115611340576040805162461bcd60e51b815260206004820152601560248201527464732d6d6174682d7375622d756e646572666c6f7760581b604482015290519081900360640190fd5b92915050565b80820182811015611340576040805162461bcd60e51b815260206004820152601460248201527364732d6d6174682d6164642d6f766572666c6f7760601b604482015290519081900360640190fd5b6000600283815481106113a457fe5b600091825260208083208684526003825260408085206001600160a01b03881686529092529220600490910290910191506113de84610852565b8054156114615760006114138260010154610fb264e8d4a510006107308760030154876000015461146790919063ffffffff16565b905061141f84826117a2565b60408051828152905186916001600160a01b038716917f34fcbac0073d7c3d388e51312faf357774904998eeb8fca628b9e6f65ee1cbf79181900360200190a3505b50505050565b60008115806114825750508082028282828161147f57fe5b04145b611340576040805162461bcd60e51b815260206004820152601460248201527364732d6d6174682d6d756c2d6f766572666c6f7760601b604482015290519081900360640190fd5b60008183816114d557fe5b049392505050565b604080516001600160a01b038481166024830152604480830185905283518084039091018152606490920183526020820180516001600160e01b031663a9059cbb60e01b1781529251825160009485949389169392918291908083835b602083106115595780518252601f19909201916020918201910161153a565b6001836020036101000a0380198251168184511680821785525050505050509050019150506000604051808303816000865af19150503d80600081146115bb576040519150601f19603f3d011682016040523d82523d6000602084013e6115c0565b606091505b50915091508180156115ee5750805115806115ee57508080602001905160208110156115eb57600080fd5b50515b61163f576040805162461bcd60e51b815260206004820152601f60248201527f5472616e7366657248656c7065723a205452414e534645525f4641494c454400604482015290519081900360640190fd5b5050505050565b604080516001600160a01b0385811660248301528481166044830152606480830185905283518084039091018152608490920183526020820180516001600160e01b03166323b872dd60e01b178152925182516000948594938a169392918291908083835b602083106116ca5780518252601f1990920191602091820191016116ab565b6001836020036101000a0380198251168184511680821785525050505050509050019150506000604051808303816000865af19150503d806000811461172c576040519150601f19603f3d011682016040523d82523d6000602084013e611731565b606091505b509150915081801561175f57508051158061175f575080806020019051602081101561175c57600080fd5b50515b61179a5760405162461bcd60e51b81526004018080602001828103825260248152602001806118cd6024913960400191505060405180910390fd5b505050505050565b610bfd7f000000000000000000000000000000000000000000000000000000000000000083611869847f00000000000000000000000000000000000000000000000000000000000000006001600160a01b03166370a08231306040518263ffffffff1660e01b815260040180826001600160a01b0316815260200191505060206040518083038186803b15801561183857600080fd5b505afa15801561184c573d6000803e3d6000fd5b505050506040513d602081101561186257600080fd5b505161186e565b6114dd565b600081831061187d578161187f565b825b939250505056fe4f776e61626c653a206e6577206f776e657220697320746865207a65726f20616464726573734f776e61626c653a2063616c6c6572206973206e6f7420746865206f776e65725472616e7366657248656c7065723a205452414e534645525f46524f4d5f4641494c4544a26469706673582212203577c9f091bf021a94e826b8962fe340b2393d755d89d2d403bcd97cf377b1e464736f6c63430007060033",
  "immutableReferences": {
    "202": [
      {
        "length": 32,
        "start": 2412
      },
      {
        "length": 32,
        "start": 2594
      },
      {
        "length": 32,
        "start": 2729
      },
      {
        "length": 32,
        "start": 4103
      },
      {
        "length": 32,
        "start": 4284
      },
      {
        "length": 32,
        "start": 4810
      },
      {
        "length": 32,
        "start": 6055
      },
      {
        "length": 32,
        "start": 6093
      }
    ],
    "206": [
      {
        "length": 32,
        "start": 2371
      },
      {
        "length": 32,
        "start": 2545
      },
      {
        "length": 32,
        "start": 3457
      },
      {
        "length": 32,
        "start": 4028
      },
      {
        "length": 32,
        "start": 4066
      },
      {
        "length": 32,
        "start": 4251
      }
    ]
  },
  "source": "// SPDX-License-Identifier: GPL-2.0\r\npragma solidity =0.7.6;\r\n\r\nimport './interfaces/IERC20.sol';\r\n\r\nimport './libraries/SafeMath.sol';\r\nimport './libraries/Math.sol';\r\nimport './libraries/TransferHelper.sol';\r\n\r\nimport './ViswapToken.sol';\r\n\r\n\r\n//Famring pool of LimitSwap Token\r\n//Copied and modified from sushi MasterChef\r\n//https://github.com/sushiswap/sushiswap/blob/master/contracts/MasterChef.sol\r\n//no migrate\r\ncontract ViswapMine is Ownable {\r\n    using SafeMath for uint256;\r\n    // Info of each user.\r\n    struct UserInfo {\r\n        uint256 amount; // How tokens the user has provided.\r\n        uint256 rewardDebt; // Reward debt. See explanation below.\r\n        //\r\n        // We do some fancy math here. Basically, any point in time, the amount of Viswap tokens\r\n        // entitled to a user but is pending to be distributed is:\r\n        //\r\n        //   pending reward = (user.amount * pool.accMinedPerShare) - user.rewardDebt\r\n        //\r\n        // Whenever a user deposits or withdraws tokens to a pool. Here's what happens:\r\n        //   1. The pool's `accMinedPerShare` (and `lastRewardBlock`) gets updated.\r\n        //   2. User receives the pending reward sent to his/her address.\r\n        //   3. User's `amount` gets updated.\r\n        //   4. User's `rewardDebt` gets updated.\r\n    }\r\n    // Info of each pool.\r\n    struct PoolInfo {\r\n        IERC20 depositToken; // Address of token contract.\r\n        uint256 allocPoint; // How many allocation points assigned to this pool. tokens to distribute per block.\r\n        uint256 lastRewardBlock; // Last block number that tokens distribution occurs.\r\n        uint256 accMinedPerShare; // Accumulated tokens per share, times 1e12. See below.\r\n    }\r\n    // The LimitSwap TOKEN!\r\n    ViswapToken public immutable limitswapToken;\r\n    // Viswap Token mined per block.\r\n    uint256 public minedPerBlock;\r\n    // Mining will stop when reached max amount\r\n    uint256 public immutable maxSupply;\r\n    // Info of each pool.\r\n    PoolInfo[] public poolInfo;\r\n    // Info of each user that stakes tokens.\r\n    mapping(uint256 => mapping(address => UserInfo)) public userInfo;\r\n    // Total allocation poitns. Must be the sum of all allocation points in all pools.\r\n    uint256 public totalAllocPoint = 0;\r\n    // The block number when token mining starts.\r\n    uint256 public startBlock;\r\n    event Deposit(address indexed user, uint256 indexed pid, uint256 amount);\r\n    event Withdraw(address indexed user, uint256 indexed pid, uint256 amount);\r\n    event Claim(address indexed user, uint256 indexed pid, uint256 amount);\r\n    event EmergencyWithdraw(\r\n        address indexed user,\r\n        uint256 indexed pid,\r\n        uint256 amount\r\n    );\r\n\r\n    constructor(\r\n        ViswapToken _limitswapToken,\r\n        uint256 _minedPerBlock,\r\n        uint256 _startBlock,\r\n        uint256 _maxSupply\r\n    ) {\r\n        limitswapToken = _limitswapToken;\r\n        minedPerBlock = _minedPerBlock;\r\n        startBlock = _startBlock;\r\n        maxSupply = _maxSupply;\r\n    }\r\n\r\n    function poolLength() external view returns (uint256) {\r\n        return poolInfo.length;\r\n    }\r\n\r\n    function minedPerBlockByPool(uint256 _pid) external view returns(uint256 outputPerBlock) {\r\n        if (totalAllocPoint != 0) outputPerBlock = minedPerBlock.mul(poolInfo[_pid].allocPoint).div(totalAllocPoint);\r\n    }\r\n\r\n    // Add a new token to the pool. Can only be called by the owner.\r\n    // XXX DO NOT add the same token more than once. Rewards will be messed up if you do.\r\n    function add(\r\n        uint256 _allocPoint,\r\n        IERC20 _depositToken\r\n    ) public onlyOwner {\r\n        massUpdatePools();\r\n        uint256 lastRewardBlock =\r\n            block.number > startBlock ? block.number : startBlock;\r\n        totalAllocPoint = totalAllocPoint.add(_allocPoint);\r\n        poolInfo.push(\r\n            PoolInfo({\r\n                depositToken: _depositToken,\r\n                allocPoint: _allocPoint,\r\n                lastRewardBlock: lastRewardBlock,\r\n                accMinedPerShare: 0\r\n            })\r\n        );\r\n    }\r\n\r\n    // Update the given pool's mining allocation point. Can only be called by the owner.\r\n    function set(\r\n        uint256 _pid,\r\n        uint256 _allocPoint\r\n    ) public onlyOwner {\r\n        massUpdatePools();\r\n        totalAllocPoint = totalAllocPoint.sub(poolInfo[_pid].allocPoint).add(\r\n            _allocPoint\r\n        );\r\n        poolInfo[_pid].allocPoint = _allocPoint;\r\n    }\r\n\r\n    // Update minedPerBlock which affecting all pools. Can only be called by the owner.\r\n    function setMinedPerBlock(\r\n        uint256 _minedPerBlock\r\n    ) public onlyOwner {\r\n        massUpdatePools();\r\n        minedPerBlock = _minedPerBlock;\r\n    }\r\n\r\n\r\n    // View function to see pending LimitSwap Tokens on frontend.\r\n    function pendingAmount(uint256 _pid, address _user)\r\n        public\r\n        view\r\n        returns (uint256 _pending)\r\n    {\r\n        PoolInfo storage pool = poolInfo[_pid];\r\n        UserInfo storage user = userInfo[_pid][_user];\r\n        uint256 accMinedPerShare = pool.accMinedPerShare;\r\n        uint256 totalDeposit = pool.depositToken.balanceOf(address(this));\r\n        if (block.number > pool.lastRewardBlock && totalDeposit != 0) {\r\n            uint256 minedAmount =\r\n                (block.number.sub(pool.lastRewardBlock))\r\n                    .mul(minedPerBlock)\r\n                    .mul(pool.allocPoint)\r\n                    .div(totalAllocPoint);\r\n            accMinedPerShare = accMinedPerShare.add(\r\n                minedAmount.mul(1e12).div(totalDeposit)\r\n            );\r\n        }\r\n        _pending = user.amount.mul(accMinedPerShare).div(1e12).sub(user.rewardDebt);\r\n        if (maxSupply > 0){\r\n            if(limitswapToken.totalSupply().add(_pending) > maxSupply) _pending = limitswapToken.totalSupply().sub(maxSupply);\r\n        }\r\n    }\r\n\r\n    function pendingAllAmount(address _user)\r\n        public\r\n        view\r\n        returns (uint256 _pending)\r\n    {\r\n        for (uint256 pid = 0; pid < poolInfo.length; ++pid){\r\n            _pending += pendingAmount(pid, _user);\r\n        }\r\n    }\r\n\r\n    // Update reward vairables for all pools. Be careful of gas spending!\r\n    function massUpdatePools() public {\r\n        uint256 length = poolInfo.length;\r\n        for (uint256 pid = 0; pid < length; ++pid) {\r\n            updatePool(pid);\r\n        }\r\n    }\r\n\r\n    // Update reward variables of the given pool to be up-to-date.\r\n    function updatePool(uint256 _pid) public {\r\n        PoolInfo storage pool = poolInfo[_pid];\r\n        if (block.number <= pool.lastRewardBlock) {\r\n            return;\r\n        }\r\n        uint256 totalDeposit = pool.depositToken.balanceOf(address(this));\r\n        if (totalDeposit == 0) {\r\n            pool.lastRewardBlock = block.number;\r\n            return;\r\n        }\r\n        uint256 minedAmount =\r\n            (block.number.sub(pool.lastRewardBlock))\r\n                .mul(minedPerBlock)\r\n                .mul(pool.allocPoint)\r\n                .div(totalAllocPoint);\r\n        if(maxSupply > 0) {\r\n            if(minedAmount > maxSupply.sub(limitswapToken.totalSupply())) minedAmount = maxSupply.sub(limitswapToken.totalSupply());\r\n        }\r\n        if(minedAmount > 0){\r\n            limitswapToken.mint(address(this), minedAmount);\r\n            pool.accMinedPerShare = pool.accMinedPerShare.add(\r\n                minedAmount.mul(1e12).div(totalDeposit)\r\n            );\r\n        }\r\n        pool.lastRewardBlock = block.number;\r\n    }\r\n\r\n    function _claim(uint256 _pid, address _user) internal {\r\n        PoolInfo storage pool = poolInfo[_pid];\r\n        UserInfo storage user = userInfo[_pid][_user];\r\n        updatePool(_pid);\r\n        if (user.amount > 0) {\r\n            uint256 pending =\r\n                user.amount.mul(pool.accMinedPerShare).div(1e12).sub(\r\n                    user.rewardDebt\r\n                );\r\n            safeTokenTransfer(_user, pending);\r\n            emit Claim(_user, _pid, pending);\r\n            //user.rewardDebt = user.rewardDebt.add(pending);\r\n            //rewardDebt not update, should be updated elsewhere\r\n        }\r\n    }\r\n\r\n    function depositedAmount(uint256 _pid, address _user) public view returns (uint256 amount) {\r\n        amount = userInfo[_pid][_user].amount;\r\n    }\r\n\r\n    // Claim limitswap token.\r\n    function claim(uint256 _pid) public {\r\n        UserInfo storage user = userInfo[_pid][msg.sender];\r\n        _claim(_pid, msg.sender);\r\n        user.rewardDebt = user.amount.mul(poolInfo[_pid].accMinedPerShare).div(1e12);\r\n    }\r\n\r\n    // Deposit tokens to mine limitswap token.\r\n    function deposit(uint256 _pid, uint256 _amount) public {\r\n        PoolInfo storage pool = poolInfo[_pid];\r\n        UserInfo storage user = userInfo[_pid][msg.sender];\r\n        _claim(_pid, msg.sender);\r\n        TransferHelper.safeTransferFrom(\r\n            address(pool.depositToken),\r\n            address(msg.sender),\r\n            address(this),\r\n            _amount\r\n        );\r\n        user.amount = user.amount.add(_amount);\r\n        user.rewardDebt = user.amount.mul(pool.accMinedPerShare).div(1e12);\r\n        emit Deposit(msg.sender, _pid, _amount);\r\n    }\r\n\r\n    // Withdraw tokens, claiming all the rewards\r\n    function withdraw(uint256 _pid, uint256 _amount) public {\r\n        PoolInfo storage pool = poolInfo[_pid];\r\n        UserInfo storage user = userInfo[_pid][msg.sender];\r\n        require(user.amount >= _amount, \"withdraw: not good\");\r\n        _claim(_pid, msg.sender);\r\n        user.amount = user.amount.sub(_amount);\r\n        user.rewardDebt = user.amount.mul(pool.accMinedPerShare).div(1e12);\r\n        TransferHelper.safeTransfer(\r\n            address(pool.depositToken),\r\n            address(msg.sender),\r\n            _amount\r\n        );\r\n        emit Withdraw(msg.sender, _pid, _amount);\r\n    }\r\n\r\n    // Withdraw without caring about rewards. EMERGENCY ONLY.\r\n    function emergencyWithdraw(uint256 _pid) public {\r\n        PoolInfo storage pool = poolInfo[_pid];\r\n        UserInfo storage user = userInfo[_pid][msg.sender];\r\n        TransferHelper.safeTransfer(\r\n            address(pool.depositToken),\r\n            address(msg.sender),\r\n            user.amount\r\n        );\r\n        emit EmergencyWithdraw(msg.sender, _pid, user.amount);\r\n        user.amount = 0;\r\n        user.rewardDebt = 0;\r\n    }\r\n\r\n    // Safe limitswap token transfer function, just in case if rounding error causes pool to not have enough tokens.\r\n    function safeTokenTransfer(address _to, uint256 _amount) internal {\r\n        TransferHelper.safeTransfer(\r\n            address(limitswapToken),\r\n            _to,\r\n            Math.min(_amount, limitswapToken.balanceOf(address(this)))\r\n            );\r\n    }\r\n}\r\n",
  "sourcePath": "E:/UBL/viswap/viswap/contracts/ViswapMine.sol",
  "compiler": {
    "name": "solc",
    "version": "0.7.6+commit.7338295f.Emscripten.clang"
  },
  "schemaVersion": "3.3.4",
  "updatedAt": "2021-06-20T12:37:33.646Z",
  "devdoc": {
    "kind": "dev",
    "methods": {
      "owner()": {
        "details": "Returns the address of the current owner."
      },
      "renounceOwnership()": {
        "details": "Leaves the contract without owner. It will not be possible to call `onlyOwner` functions anymore. Can only be called by the current owner. NOTE: Renouncing ownership will leave the contract without an owner, thereby removing any functionality that is only available to the owner."
      },
      "transferOwnership(address)": {
        "details": "Transfers ownership of the contract to a new account (`newOwner`). Can only be called by the current owner."
      }
    },
    "version": 1
  },
  "userdoc": {
    "kind": "user",
    "methods": {},
    "version": 1
  }
}