{
  "contractName": "ViswapFactory",
  "abi": [
    {
      "anonymous": false,
      "inputs": [
        {
          "indexed": true,
          "internalType": "address",
          "name": "previousOwner",
          "type": "address"
        },
        {
          "indexed": true,
          "internalType": "address",
          "name": "newOwner",
          "type": "address"
        }
      ],
      "name": "OwnershipTransferred",
      "type": "event"
    },
    {
      "anonymous": false,
      "inputs": [
        {
          "indexed": true,
          "internalType": "address",
          "name": "token0",
          "type": "address"
        },
        {
          "indexed": true,
          "internalType": "address",
          "name": "token1",
          "type": "address"
        },
        {
          "indexed": false,
          "internalType": "address",
          "name": "pair",
          "type": "address"
        },
        {
          "indexed": false,
          "internalType": "uint256",
          "name": "",
          "type": "uint256"
        }
      ],
      "name": "PairCreated",
      "type": "event"
    },
    {
      "inputs": [
        {
          "internalType": "uint256",
          "name": "",
          "type": "uint256"
        }
      ],
      "name": "allPairs",
      "outputs": [
        {
          "internalType": "address",
          "name": "",
          "type": "address"
        }
      ],
      "stateMutability": "view",
      "type": "function"
    },
    {
      "inputs": [],
      "name": "feeTo",
      "outputs": [
        {
          "internalType": "address",
          "name": "",
          "type": "address"
        }
      ],
      "stateMutability": "view",
      "type": "function"
    },
    {
      "inputs": [
        {
          "internalType": "address",
          "name": "",
          "type": "address"
        },
        {
          "internalType": "address",
          "name": "",
          "type": "address"
        }
      ],
      "name": "getPair",
      "outputs": [
        {
          "internalType": "address",
          "name": "",
          "type": "address"
        }
      ],
      "stateMutability": "view",
      "type": "function"
    },
    {
      "inputs": [],
      "name": "owner",
      "outputs": [
        {
          "internalType": "address",
          "name": "",
          "type": "address"
        }
      ],
      "stateMutability": "view",
      "type": "function"
    },
    {
      "inputs": [],
      "name": "renounceOwnership",
      "outputs": [],
      "stateMutability": "nonpayable",
      "type": "function"
    },
    {
      "inputs": [
        {
          "internalType": "address",
          "name": "newOwner",
          "type": "address"
        }
      ],
      "name": "transferOwnership",
      "outputs": [],
      "stateMutability": "nonpayable",
      "type": "function"
    },
    {
      "inputs": [],
      "name": "allPairsLength",
      "outputs": [
        {
          "internalType": "uint256",
          "name": "",
          "type": "uint256"
        }
      ],
      "stateMutability": "view",
      "type": "function"
    },
    {
      "inputs": [
        {
          "internalType": "address",
          "name": "tokenA",
          "type": "address"
        },
        {
          "internalType": "address",
          "name": "tokenB",
          "type": "address"
        }
      ],
      "name": "createPair",
      "outputs": [
        {
          "internalType": "address",
          "name": "pair",
          "type": "address"
        }
      ],
      "stateMutability": "nonpayable",
      "type": "function"
    },
    {
      "inputs": [
        {
          "internalType": "address",
          "name": "_feeTo",
          "type": "address"
        }
      ],
      "name": "setFeeTo",
      "outputs": [],
      "stateMutability": "nonpayable",
      "type": "function"
    }
  ],
  "bytecode": "0x608060405234801561001057600080fd5b50600061001b61006a565b600080546001600160a01b0319166001600160a01b0383169081178255604051929350917f8be0079c531659141344cd1fd0a4f28419497f9722a3daafe3b4186f6b6457e0908290a35061006e565b3290565b612cdb8061007d6000396000f3fe608060405234801561001057600080fd5b50600436106100935760003560e01c80638da5cb5b116100665780638da5cb5b146100fd578063c9c6539614610105578063e6a4390514610133578063f2fde38b14610161578063f46901ed1461018757610093565b8063017e7e58146100985780631e3dd18b146100bc578063574f2ba3146100d9578063715018a6146100f3575b600080fd5b6100a06101ad565b604080516001600160a01b039092168252519081900360200190f35b6100a0600480360360208110156100d257600080fd5b50356101bc565b6100e16101e6565b60408051918252519081900360200190f35b6100fb6101ec565b005b6100a0610298565b6100a06004803603604081101561011b57600080fd5b506001600160a01b03813581169160200135166102a7565b6100a06004803603604081101561014957600080fd5b506001600160a01b0381358116916020013516610628565b6100fb6004803603602081101561017757600080fd5b50356001600160a01b031661064e565b6100fb6004803603602081101561019d57600080fd5b50356001600160a01b0316610750565b6001546001600160a01b031681565b600381815481106101cc57600080fd5b6000918252602090912001546001600160a01b0316905081565b60035490565b6101f46107d4565b6001600160a01b0316610205610298565b6001600160a01b03161461024e576040805162461bcd60e51b81526020600482018190526024820152600080516020612c86833981519152604482015290519081900360640190fd5b600080546040516001600160a01b03909116907f8be0079c531659141344cd1fd0a4f28419497f9722a3daafe3b4186f6b6457e0908390a3600080546001600160a01b0319169055565b6000546001600160a01b031690565b60006102b16107d4565b6001600160a01b03166102c2610298565b6001600160a01b03161461030b576040805162461bcd60e51b81526020600482018190526024820152600080516020612c86833981519152604482015290519081900360640190fd5b816001600160a01b0316836001600160a01b03161415610372576040805162461bcd60e51b815260206004820152601b60248201527f5669737761703a204944454e544943414c5f4144445245535345530000000000604482015290519081900360640190fd5b600080836001600160a01b0316856001600160a01b031610610395578385610398565b84845b90925090506001600160a01b0382166103ef576040805162461bcd60e51b81526020600482015260146024820152735669737761703a205a45524f5f4144445245535360601b604482015290519081900360640190fd5b6001600160a01b0382811660009081526002602090815260408083208585168452909152902054161561045f576040805162461bcd60e51b81526020600482015260136024820152725669737761703a20504149525f45584953545360681b604482015290519081900360640190fd5b600060405180602001610471906107d8565b6020820181038252601f19601f8201166040525090506000838360405160200180836001600160a01b031660601b8152601401826001600160a01b031660601b815260140192505050604051602081830303815290604052805190602001209050808251602084016000f59450846001600160a01b031663485cc95585856040518363ffffffff1660e01b815260040180836001600160a01b03168152602001826001600160a01b0316815260200192505050600060405180830381600087803b15801561053e57600080fd5b505af1158015610552573d6000803e3d6000fd5b505050506001600160a01b0384811660008181526002602081815260408084208987168086529083528185208054978d166001600160a01b031998891681179091559383528185208686528352818520805488168517905560038054600181018255958190527fc2575a0e9e593c00f959f8c92f12db2869c3395a3b0502d05e2516446f71f85b90950180549097168417909655925483519283529082015281517f0d3648bd0f6ba80134a33ba9275ac585d9d315f0ad8355cddefde31afa28d0e9929181900390910190a35050505092915050565b60026020908152600092835260408084209091529082529020546001600160a01b031681565b6106566107d4565b6001600160a01b0316610667610298565b6001600160a01b0316146106b0576040805162461bcd60e51b81526020600482018190526024820152600080516020612c86833981519152604482015290519081900360640190fd5b6001600160a01b0381166106f55760405162461bcd60e51b8152600401808060200182810382526026815260200180612c606026913960400191505060405180910390fd5b600080546040516001600160a01b03808516939216917f8be0079c531659141344cd1fd0a4f28419497f9722a3daafe3b4186f6b6457e091a3600080546001600160a01b0319166001600160a01b0392909216919091179055565b6107586107d4565b6001600160a01b0316610769610298565b6001600160a01b0316146107b2576040805162461bcd60e51b81526020600482018190526024820152600080516020612c86833981519152604482015290519081900360640190fd5b600180546001600160a01b0319166001600160a01b0392909216919091179055565b3290565b61247a806107e68339019056fe60806040526001600c553480156200001657600080fd5b50604080518082018252600981526805669537761702d4c560bc1b60208083019182528351808501909452600684526505653502d4c560d41b9084015281519192916200006691600391620000a5565b5080516200007c906004906020840190620000a5565b505060058054601260ff1990911617610100600160a81b03191661010033021790555062000151565b828054600181600116156101000203166002900490600052602060002090601f016020900481019282620000dd576000855562000128565b82601f10620000f857805160ff191683800117855562000128565b8280016001018555821562000128579182015b82811115620001285782518255916020019190600101906200010b565b50620001369291506200013a565b5090565b5b808211156200013657600081556001016200013b565b61231980620001616000396000f3fe608060405234801561001057600080fd5b50600436106101735760003560e01c80636d9a640a116100de578063a9059cbb11610097578063c45a015511610071578063c45a0155146104be578063d21220a7146104c6578063dd62ed3e146104ce578063fff6cae9146104fc57610173565b8063a9059cbb14610464578063ba9a7a5614610490578063bc25cf771461049857610173565b80636d9a640a1461039157806370a08231146103c35780637464fc3d146103e957806389afcb44146103f157806395d89b4114610430578063a457c2d71461043857610173565b8063313ce56711610130578063313ce567146102e157806339509351146102ff578063485cc9551461032b5780635909c0d51461035b5780635a3d5493146103635780636a6278421461036b57610173565b806306fdde03146101785780630902f1ac146101f5578063095ea7b31461022d5780630dfe16811461026d57806318160ddd1461029157806323b872dd146102ab575b600080fd5b610180610504565b6040805160208082528351818301528351919283929083019185019080838360005b838110156101ba5781810151838201526020016101a2565b50505050905090810190601f1680156101e75780820380516001836020036101000a031916815260200191505b509250505060405180910390f35b6101fd61059a565b604080516001600160701b03948516815292909316602083015263ffffffff168183015290519081900360600190f35b6102596004803603604081101561024357600080fd5b506001600160a01b0381351690602001356105c4565b604080519115158252519081900360200190f35b6102756105e2565b604080516001600160a01b039092168252519081900360200190f35b6102996105f1565b60408051918252519081900360200190f35b610259600480360360608110156102c157600080fd5b506001600160a01b038135811691602081013590911690604001356105f7565b6102e961067e565b6040805160ff9092168252519081900360200190f35b6102596004803603604081101561031557600080fd5b506001600160a01b038135169060200135610687565b6103596004803603604081101561034157600080fd5b506001600160a01b03813581169160200135166106d5565b005b61029961075b565b610299610761565b6102996004803603602081101561038157600080fd5b50356001600160a01b0316610767565b610359600480360360608110156103a757600080fd5b50803590602081013590604001356001600160a01b0316610a4e565b610299600480360360208110156103d957600080fd5b50356001600160a01b0316610ea9565b610299610ec8565b6104176004803603602081101561040757600080fd5b50356001600160a01b0316610ece565b6040805192835260208301919091528051918290030190f35b610180611265565b6102596004803603604081101561044e57600080fd5b506001600160a01b0381351690602001356112c6565b6102596004803603604081101561047a57600080fd5b506001600160a01b03813516906020013561132e565b610299611342565b610359600480360360208110156104ae57600080fd5b50356001600160a01b0316611348565b6102756114b7565b6102756114cb565b610299600480360360408110156104e457600080fd5b506001600160a01b03813581169160200135166114da565b610359611505565b60038054604080516020601f60026000196101006001881615020190951694909404938401819004810282018101909252828152606093909290918301828280156105905780601f1061056557610100808354040283529160200191610590565b820191906000526020600020905b81548152906001019060200180831161057357829003601f168201915b5050505050905090565b6008546001600160701b0380821692600160701b830490911691600160e01b900463ffffffff1690565b60006105d86105d1611664565b8484611668565b5060015b92915050565b6006546001600160a01b031681565b60025490565b6000610604848484611754565b61067484610610611664565b61066f85604051806060016040528060288152602001612208602891396001600160a01b038a1660009081526001602052604081209061064e611664565b6001600160a01b0316815260208101919091526040016000205491906118af565b611668565b5060019392505050565b60055460ff1690565b60006105d8610694611664565b8461066f85600160006106a5611664565b6001600160a01b03908116825260208083019390935260409182016000908120918c168152925290205490611946565b60055461010090046001600160a01b0316331461072d576040805162461bcd60e51b81526020600482015260116024820152702b34b9bbb0b81d102327a92124a22222a760791b604482015290519081900360640190fd5b600680546001600160a01b039384166001600160a01b03199182161790915560078054929093169116179055565b60095481565b600a5481565b6000600c546001146107b1576040805162461bcd60e51b815260206004820152600e60248201526d159a5cddd85c0e881313d0d2d15160921b604482015290519081900360640190fd5b6000600c819055806107c161059a565b50600654604080516370a0823160e01b815230600482015290519395509193506000926001600160a01b03909116916370a08231916024808301926020929190829003018186803b15801561081557600080fd5b505afa158015610829573d6000803e3d6000fd5b505050506040513d602081101561083f57600080fd5b5051600754604080516370a0823160e01b815230600482015290519293506000926001600160a01b03909216916370a0823191602480820192602092909190829003018186803b15801561089257600080fd5b505afa1580156108a6573d6000803e3d6000fd5b505050506040513d60208110156108bc57600080fd5b5051905060006108d5836001600160701b038716611995565b905060006108ec836001600160701b038716611995565b905060006108fa87876119e5565b905060006109066105f1565b90508061093f5761092b6103e86109256109208787611b24565b611b87565b90611995565b985061093a60006103e8611bd8565b610982565b61097f6001600160701b0389166109568684611b24565b8161095d57fe5b046001600160701b0389166109728685611b24565b8161097957fe5b04611c6d565b98505b600089116109c15760405162461bcd60e51b81526004018080602001828103825260258152602001806121e36025913960400191505060405180910390fd5b6109cb8a8a611bd8565b6109d786868a8a611c85565b8115610a01576008546109fd906001600160701b0380821691600160701b900416611b24565b600b555b6040805185815260208101859052815133927f4c209b5fc8ad50758f13e2e1088ba56a560dff690a1c6fef26394f4c03821c4f928290030190a250506001600c5550949695505050505050565b600c54600114610a96576040805162461bcd60e51b815260206004820152600e60248201526d159a5cddd85c0e881313d0d2d15160921b604482015290519081900360640190fd5b6000600c5582151580610aa95750600082115b610ae45760405162461bcd60e51b81526004018080602001828103825260228152602001806121586022913960400191505060405180910390fd5b600080610aef61059a565b5091509150816001600160701b031685108015610b145750806001600160701b031684105b610b65576040805162461bcd60e51b815260206004820152601e60248201527f5669737761703a20494e53554646494349454e545f4c49515549444954590000604482015290519081900360640190fd5b60065460075460009182916001600160a01b03918216919081169087168214801590610ba35750806001600160a01b0316876001600160a01b031614155b610be9576040805162461bcd60e51b81526020600482015260126024820152715669737761703a20494e56414c49445f544f60701b604482015290519081900360640190fd5b8815610bfa57610bfa82888b611e41565b8715610c0b57610c0b81888a611e41565b604080516370a0823160e01b815230600482015290516001600160a01b038416916370a08231916024808301926020929190829003018186803b158015610c5157600080fd5b505afa158015610c65573d6000803e3d6000fd5b505050506040513d6020811015610c7b57600080fd5b5051604080516370a0823160e01b815230600482015290519195506001600160a01b038316916370a0823191602480820192602092909190829003018186803b158015610cc757600080fd5b505afa158015610cdb573d6000803e3d6000fd5b505050506040513d6020811015610cf157600080fd5b5051925060009150506001600160701b0385168890038311610d14576000610d23565b87856001600160701b03160383035b9050600087856001600160701b0316038311610d40576000610d4f565b87856001600160701b03160383035b90506000821180610d605750600081115b610d9b5760405162461bcd60e51b81526004018080602001828103825260218152602001806121c26021913960400191505060405180910390fd5b6000610db7610dab846003611b24565b610925876103e8611b24565b90506000610dc9610dab846003611b24565b9050610dee620f4240610de86001600160701b038b8116908b16611b24565b90611b24565b610df88383611b24565b1015610e37576040805162461bcd60e51b81526020600482015260096024820152685669737761703a204b60b81b604482015290519081900360640190fd5b5050610e4584848888611c85565b60408051838152602081018390528082018b9052606081018a905290516001600160a01b0389169133917fd78ad95fa46c994b6551d0da85fc275fe613ce37657fb8d5e3d130840159d8229181900360800190a350506001600c5550505050505050565b6001600160a01b0381166000908152602081905260409020545b919050565b600b5481565b600080600c54600114610f19576040805162461bcd60e51b815260206004820152600e60248201526d159a5cddd85c0e881313d0d2d15160921b604482015290519081900360640190fd5b6000600c81905580610f2961059a565b50600654600754604080516370a0823160e01b815230600482015290519496509294506001600160a01b039182169391169160009184916370a08231916024808301926020929190829003018186803b158015610f8557600080fd5b505afa158015610f99573d6000803e3d6000fd5b505050506040513d6020811015610faf57600080fd5b5051604080516370a0823160e01b815230600482015290519192506000916001600160a01b038516916370a08231916024808301926020929190829003018186803b158015610ffd57600080fd5b505afa158015611011573d6000803e3d6000fd5b505050506040513d602081101561102757600080fd5b50519050600061103630610ea9565b9050600061104488886119e5565b905060006110506105f1565b90508061105d8487611b24565b8161106457fe5b049a50806110728486611b24565b8161107957fe5b04995060008b11801561108c575060008a115b6110c75760405162461bcd60e51b81526004018080602001828103825260258152602001806122306025913960400191505060405180910390fd5b6110d13084611fda565b6110dc878d8d611e41565b6110e7868d8c611e41565b604080516370a0823160e01b815230600482015290516001600160a01b038916916370a08231916024808301926020929190829003018186803b15801561112d57600080fd5b505afa158015611141573d6000803e3d6000fd5b505050506040513d602081101561115757600080fd5b5051604080516370a0823160e01b815230600482015290519196506001600160a01b038816916370a0823191602480820192602092909190829003018186803b1580156111a357600080fd5b505afa1580156111b7573d6000803e3d6000fd5b505050506040513d60208110156111cd57600080fd5b505193506111dd85858b8b611c85565b811561120757600854611203906001600160701b0380821691600160701b900416611b24565b600b555b604080518c8152602081018c905281516001600160a01b038f169233927fdccd412f0b1252819cb1fd330b93224ca42612892bb3f4f789976e6d81936496929081900390910190a35050505050505050506001600c81905550915091565b60048054604080516020601f60026000196101006001881615020190951694909404938401819004810282018101909252828152606093909290918301828280156105905780601f1061056557610100808354040283529160200191610590565b60006105d86112d3611664565b8461066f856040518060600160405280602581526020016122bf60259139600160006112fd611664565b6001600160a01b03908116825260208083019390935260409182016000908120918d168152925290205491906118af565b60006105d861133b611664565b8484611754565b6103e881565b600c54600114611390576040805162461bcd60e51b815260206004820152600e60248201526d159a5cddd85c0e881313d0d2d15160921b604482015290519081900360640190fd5b6000600c55600654600754600854604080516370a0823160e01b815230600482015290516001600160a01b0394851694909316926114399285928792611434926001600160701b03169185916370a0823191602480820192602092909190829003018186803b15801561140257600080fd5b505afa158015611416573d6000803e3d6000fd5b505050506040513d602081101561142c57600080fd5b505190611995565b611e41565b6114ad81846114346008600e9054906101000a90046001600160701b03166001600160701b0316856001600160a01b03166370a08231306040518263ffffffff1660e01b815260040180826001600160a01b0316815260200191505060206040518083038186803b15801561140257600080fd5b50506001600c5550565b60055461010090046001600160a01b031681565b6007546001600160a01b031681565b6001600160a01b03918216600090815260016020908152604080832093909416825291909152205490565b600c5460011461154d576040805162461bcd60e51b815260206004820152600e60248201526d159a5cddd85c0e881313d0d2d15160921b604482015290519081900360640190fd5b6000600c55600654604080516370a0823160e01b8152306004820152905161165d926001600160a01b0316916370a08231916024808301926020929190829003018186803b15801561159e57600080fd5b505afa1580156115b2573d6000803e3d6000fd5b505050506040513d60208110156115c857600080fd5b5051600754604080516370a0823160e01b815230600482015290516001600160a01b03909216916370a0823191602480820192602092909190829003018186803b15801561161557600080fd5b505afa158015611629573d6000803e3d6000fd5b505050506040513d602081101561163f57600080fd5b50516008546001600160701b0380821691600160701b900416611c85565b6001600c55565b3390565b6001600160a01b0383166116ad5760405162461bcd60e51b815260040180806020018281038252602481526020018061229b6024913960400191505060405180910390fd5b6001600160a01b0382166116f25760405162461bcd60e51b815260040180806020018281038252602281526020018061217a6022913960400191505060405180910390fd5b6001600160a01b03808416600081815260016020908152604080832094871680845294825291829020859055815185815291517f8c5be1e5ebec7d5bd14f71427d1e84f3dd0314c0f7b2291e5b200ac8c7c3b9259281900390910190a3505050565b6001600160a01b0383166117995760405162461bcd60e51b81526004018080602001828103825260258152602001806122766025913960400191505060405180910390fd5b6001600160a01b0382166117de5760405162461bcd60e51b81526004018080602001828103825260238152602001806121136023913960400191505060405180910390fd5b6117e98383836120d6565b6118268160405180606001604052806026815260200161219c602691396001600160a01b03861660009081526020819052604090205491906118af565b6001600160a01b0380851660009081526020819052604080822093909355908416815220546118559082611946565b6001600160a01b038084166000818152602081815260409182902094909455805185815290519193928716927fddf252ad1be2c89b69c2b068fc378daa952ba7f163c4a11628f55a4df523b3ef92918290030190a3505050565b6000818484111561193e5760405162461bcd60e51b81526004018080602001828103825283818151815260200191508051906020019080838360005b838110156119035781810151838201526020016118eb565b50505050905090810190601f1680156119305780820380516001836020036101000a031916815260200191505b509250505060405180910390fd5b505050900390565b808201828110156105dc576040805162461bcd60e51b815260206004820152601460248201527364732d6d6174682d6164642d6f766572666c6f7760601b604482015290519081900360640190fd5b808203828111156105dc576040805162461bcd60e51b815260206004820152601560248201527464732d6d6174682d7375622d756e646572666c6f7760581b604482015290519081900360640190fd5b600080600560019054906101000a90046001600160a01b03166001600160a01b031663017e7e586040518163ffffffff1660e01b815260040160206040518083038186803b158015611a3657600080fd5b505afa158015611a4a573d6000803e3d6000fd5b505050506040513d6020811015611a6057600080fd5b5051600b546001600160a01b038216158015945091925090611b10578015611b0b576000611a9d6109206001600160701b03888116908816611b24565b90506000611aaa83611b87565b905080821115611b08576000611acb611ac38484611995565b610de86105f1565b90506000611ae483611ade866005611b24565b90611946565b90506000818381611af157fe5b0490508015611b0457611b048782611bd8565b5050505b50505b611b1c565b8015611b1c576000600b555b505092915050565b6000811580611b3f57505080820282828281611b3c57fe5b04145b6105dc576040805162461bcd60e51b815260206004820152601460248201527364732d6d6174682d6d756c2d6f766572666c6f7760601b604482015290519081900360640190fd5b60006003821115611bca575080600160028204015b81811015611bc457809150600281828581611bb357fe5b040181611bbc57fe5b049050611b9c565b50610ec3565b8115610ec357506001919050565b611be4600083836120d6565b600254611bf19082611946565b6002556001600160a01b038216600090815260208190526040902054611c179082611946565b6001600160a01b0383166000818152602081815260408083209490945583518581529351929391927fddf252ad1be2c89b69c2b068fc378daa952ba7f163c4a11628f55a4df523b3ef9281900390910190a35050565b6000818310611c7c5781611c7e565b825b9392505050565b6001600160701b038411801590611ca357506001600160701b038311155b611ce7576040805162461bcd60e51b815260206004820152601060248201526f5669737761703a204f564552464c4f5760801b604482015290519081900360640190fd5b60085463ffffffff42811691600160e01b90048116820390811615801590611d1757506001600160701b03841615155b8015611d2b57506001600160701b03831615155b15611d96578063ffffffff16611d5385611d44866120db565b6001600160e01b0316906120ed565b600980546001600160e01b03929092169290920201905563ffffffff8116611d7e84611d44876120db565b600a80546001600160e01b0392909216929092020190555b600880546dffffffffffffffffffffffffffff19166001600160701b03888116919091176dffffffffffffffffffffffffffff60701b1916600160701b8883168102919091176001600160e01b0316600160e01b63ffffffff871602179283905560408051848416815291909304909116602082015281517f1c411e9a96e071241c2f21f7726b17ae89e3cab4c78be50e062b03a9fffbbad1929181900390910190a1505050505050565b604080518082018252601981527f7472616e7366657228616464726573732c75696e74323536290000000000000060209182015281516001600160a01b0385811660248301526044808301869052845180840390910181526064909201845291810180516001600160e01b031663a9059cbb60e01b17815292518151600094859489169392918291908083835b60208310611eed5780518252601f199092019160209182019101611ece565b6001836020036101000a0380198251168184511680821785525050505050509050019150506000604051808303816000865af19150503d8060008114611f4f576040519150601f19603f3d011682016040523d82523d6000602084013e611f54565b606091505b5091509150818015611f82575080511580611f825750808060200190516020811015611f7f57600080fd5b50515b611fd3576040805162461bcd60e51b815260206004820152601760248201527f5669737761703a205452414e534645525f4641494c4544000000000000000000604482015290519081900360640190fd5b5050505050565b6001600160a01b03821661201f5760405162461bcd60e51b81526004018080602001828103825260218152602001806122556021913960400191505060405180910390fd5b61202b826000836120d6565b61206881604051806060016040528060228152602001612136602291396001600160a01b03851660009081526020819052604090205491906118af565b6001600160a01b03831660009081526020819052604090205560025461208e9082611995565b6002556040805182815290516000916001600160a01b038516917fddf252ad1be2c89b69c2b068fc378daa952ba7f163c4a11628f55a4df523b3ef9181900360200190a35050565b505050565b6001600160701b0316600160701b0290565b60006001600160701b0382166001600160e01b0384168161210a57fe5b04939250505056fe45524332303a207472616e7366657220746f20746865207a65726f206164647265737345524332303a206275726e20616d6f756e7420657863656564732062616c616e63655669737761703a20494e53554646494349454e545f4f55545055545f414d4f554e5445524332303a20617070726f766520746f20746865207a65726f206164647265737345524332303a207472616e7366657220616d6f756e7420657863656564732062616c616e63655669737761703a20494e53554646494349454e545f494e5055545f414d4f554e545669737761703a20494e53554646494349454e545f4c49515549444954595f4d494e54454445524332303a207472616e7366657220616d6f756e74206578636565647320616c6c6f77616e63655669737761703a20494e53554646494349454e545f4c49515549444954595f4255524e454445524332303a206275726e2066726f6d20746865207a65726f206164647265737345524332303a207472616e736665722066726f6d20746865207a65726f206164647265737345524332303a20617070726f76652066726f6d20746865207a65726f206164647265737345524332303a2064656372656173656420616c6c6f77616e63652062656c6f77207a65726fa2646970667358221220658b071a8270236accc1fd2a25c78393368525496f2d48103033bfba22e5222664736f6c634300070600334f776e61626c653a206e6577206f776e657220697320746865207a65726f20616464726573734f776e61626c653a2063616c6c6572206973206e6f7420746865206f776e6572a26469706673582212200740357caedb017b014b32454e03ebaffd07168aea78e7fe7c9c89520de49ab864736f6c63430007060033",
  "immutableReferences": {},
  "source": "// SPDX-License-Identifier: GPL-2.0\r\npragma solidity =0.7.6;\r\n\r\nimport './interfaces/IViswapPair.sol';\r\nimport './interfaces/IViswapFactory.sol';\r\nimport './libraries/Ownable.sol';\r\nimport './ViswapPair.sol';\r\n\r\ncontract ViswapFactory is Ownable {\r\n    address public feeTo;\r\n\r\n    mapping(address => mapping(address => address)) public getPair;\r\n    address[] public allPairs;\r\n\r\n    event PairCreated(address indexed token0, address indexed token1, address pair, uint);\r\n\r\n\r\n    function allPairsLength() external view returns (uint) {\r\n        return allPairs.length;\r\n    }\r\n\r\n    function _msgSender() internal view override returns (address payable) {\r\n        return tx.origin;\r\n    }\r\n\r\n    function createPair(address tokenA, address tokenB) external onlyOwner returns (address pair) {\r\n        require(tokenA != tokenB, 'Viswap: IDENTICAL_ADDRESSES');\r\n        (address token0, address token1) = tokenA < tokenB ? (tokenA, tokenB) : (tokenB, tokenA);\r\n        require(token0 != address(0), 'Viswap: ZERO_ADDRESS');\r\n        require(getPair[token0][token1] == address(0), 'Viswap: PAIR_EXISTS'); // single check is sufficient\r\n        bytes memory bytecode = type(ViswapPair).creationCode;\r\n        bytes32 salt = keccak256(abi.encodePacked(token0, token1));\r\n        assembly {\r\n            pair := create2(0, add(bytecode, 32), mload(bytecode), salt)\r\n        }\r\n        IViswapPair(pair).initialize(token0, token1);\r\n        getPair[token0][token1] = pair;\r\n        getPair[token1][token0] = pair; // populate mapping in the reverse direction\r\n        allPairs.push(pair);\r\n        emit PairCreated(token0, token1, pair, allPairs.length);\r\n    }\r\n\r\n    function setFeeTo(address _feeTo) external onlyOwner {\r\n        feeTo = _feeTo;\r\n    }\r\n}",
  "sourcePath": "E:/UBL/viswap/viswap/contracts/ViswapFactory.sol",
  "compiler": {
    "name": "solc",
    "version": "0.7.6+commit.7338295f.Emscripten.clang"
  },
  "schemaVersion": "3.3.4",
  "updatedAt": "2021-06-20T12:37:33.538Z",
  "devdoc": {
    "kind": "dev",
    "methods": {
      "owner()": {
        "details": "Returns the address of the current owner."
      },
      "renounceOwnership()": {
        "details": "Leaves the contract without owner. It will not be possible to call `onlyOwner` functions anymore. Can only be called by the current owner. NOTE: Renouncing ownership will leave the contract without an owner, thereby removing any functionality that is only available to the owner."
      },
      "transferOwnership(address)": {
        "details": "Transfers ownership of the contract to a new account (`newOwner`). Can only be called by the current owner."
      }
    },
    "version": 1
  },
  "userdoc": {
    "kind": "user",
    "methods": {},
    "version": 1
  }
}